:10000000F0030400000000000000000000000000F9
:1000100000000000000000000000000000000000E0
:1000200000000000000000000000000000000000D0
:1000300000000000E60200000000000000000000D8
:100040000603000000000000000000002403000080
:1000500000000000FE04000000000000000000009E
:100060000000000000000000000000000000000090
:100070000000000000000000000000002E0500004D
:100080000000000000000000CC03000000000000A1
:100090000000000000000000000000000000000060
:1000A0000000000000000000000000000000000050
:1000B0000000000000000000000000000000000040
:1000C0000000000000000000000000000000000030
:1000D0000000000000000000000000000000000020
:1000E0000000000000000000000000000000000010
:1000F0000000000000000000000000000000000000
:1001000000000000000000000000000000000000EF
:1001100000000000000000000000000000000000DF
:1001200000000000000000000000000000000000CF
:1001300000000000000000000000000000000000BF
:1001400000000000000000000000000000000000AF
:10015000000000000000000000000000000000009F
:10016000000000000000000000000000000000008F
:10017000000000000000000000000000000000007F
:10018000000000000000000000000000000000006F
:10019000000000000000000000000000000000005F
:1001A000000000000000000000000000000000004F
:1001B000000000000000000000000000000000003F
:1001C000000000000000000000000000000000002F
:1001D000000000000000000000000000000000001F
:1001E000000000000000000000000000000000000F
:1001F00000000000000000000000000000000000FF
:1007E0000F832000F0FF200020A0B70000002000B1
:1007F00034A0B700400020004420B7000200FA00F7
:100800006E050200000000007805020000000000F4
:100810008A1F78008B1F78008C1F7800F0FF2F0054
:10082000C6A2B700200E2000A0A2B700A222EF00AF
:10083000F0F32100A4A2B700E0FF2F00A8A2B700A8
:10084000A622EF00AA22EF008420EF008620EF000E
:100850008820EF000000280080A0B7008220EF0071
:10086000808020008CA0B7009580A80099A0A800E7
:1008700000E2240002A1B7000000280004A1B70094
:100880008460A9008C60A800B0C424000CA1B7004B
:100890000003280010A1B70084C0A9008CC0A800E4
:1008A000B0C424001AA1B700000328001EA1B7009D
:1008B00086A0A9008EA0A90090E02E00C6A2B700D5
:1008C00080FF2F00D2A2B700F0FF2F00C0A2B70018
:1008D00010F92F00DEA2B700F0FF2D00CCA2B70068
:1008E00010822000104078006104E1003D003A00D1
:1008F0001080200090407800A0C7B300000CE100F9
:1009000003003A0031822000D08020009048780017
:10091000108020009040780010C4B300000CE1006B
:1009200030003900108020009040780090C7B3005C
:10093000000CE1002B003E002182200010C0B3001B
:1009400080487800108020001080FB004100DD000E
:10095000800178004F9ADE0001C02F00F2072000CE
:10096000C0822000039840000410490010002000BD
:10097000000798000E0090006400E1000C003E00AB
:100980006182200060004700108140000E0090004E
:10099000E90040000080200001004000104978007C
:1009A000110020006000470010884000F1FF370070
:1009B0006A82200097FE07002041880022822000E2
:1009C0000220EF0001497800000678006A418000AB
:1009D0007B418000DEFE070061E7AE0001003700CA
:1009E000FDFF3700BEFF37004F067800CF057800C7
:0C09F0004F0578000080FA00FFFF370080
:100414000200FA000620EF000420EF008A1F780093
:100424001A457800B9FF07004F0578000000E20084
:10043400030032006100450000057800F7FF370033
:100444009A407800D0C2B300000CE10005003A00E5
:10045400E1804100610045000005780081017800D9
:10046400060037009A407800B0C2B300000CE100E7
:1004740002003A006100450000057800020278009D
:100484008A0078006100450000057800114078007A
:100494000080FB00000798008A1F78000E4590003A
:1004A400AAFF07004F0578000000E2002000320098
:1004B4008A1F78000E45900087FF07004F057800DB
:1004C4000000E200060032008A1F78000E4590000A
:1004D4006CFF07004F0578000080FB0000079800C0
:1004E4008A1F78000E4590004FFF07004F057800E3
:1004F4000000E2000500320002032000E000470093
:100504006000470011081100040037000E0190003C
:10051400710520006000470001085100C420DD007F
:100524000E4090000080FB0000824000D4FF3700A2
:100534000600E200020032006000120001003700F1
:0C054400040078000080FA0000000600AF
:100310000000FA0000C2B3000054E1000700320000
:100320006D54E10003003E006954E1000100390012
:10033000020037000220EF000200370010C0B300B7
:10034000804078000180FB000080FA000000060079
:100350000000FA0060C6B3000054E10005003E0052
:1003600010C6B3000054E1000200390010C0B30011
:10037000010037000020EF008040780060C4B30027
:100380000054E10005003E0010C4B3000054E10039
:100390000200390010C0B300010037000020EF0058
:1003A00000C17000A1FF07008280FB000080700088
:0C03B0000080FB000080FA000000060046
:10022C000000FA0090C3B3000054E10005003E004A
:10023C0000C3B3000054E1000200390010C0B30049
:10024C00010037000020EF000080FB000080FA0066
:04025C000000060098
:1002DC000000FA00A0C5B3000054E10005003E0088
:1002EC0010C4B3000054E1000200390010C0B30088
:1002FC00010037000020EF000080FB000080FA00B6
:04030C0000000600E7
:100288000000FA00A0C5B3000054E10007003E00DA
:1002980010C4B3000054E100040039008A80FB0058
:1002A8000002200000807000004578000A407800B5
:0802B8000080FA0000000600BE
:100550000000FA005AFF070061E7AE000100370013
:10056000FDFF3700400120009004780000A0EC005F
:100570001000780032A0B7000C047800880CBB0093
:100580004000240060A7B7001DFF070061C7A90055
:080590000080FA0000000600E3
:1002C0000000FA008C1F78004C042400E4FF0700B3
:0C02D0004F0678000080FA0000000600D5
:100260000000FA00400120001A3B880000A0EC00CA
:100270001000780064A7B7000C3B8800E0FF07007F
:080280000080FA0000000600F6
:100200000000FA000500FC0059052000393B880079
:10021000A90A2000393B880061E7A800000000001F
:0C022000000000000080FA000000060052
:100ADC000A8020000B002000170009000B1D780075
:040AEC000000060000
:100AF00001802000A054280011000900B0187800DF
:040B000000000600EB
:100798003400F8003600F800801F780020002000A0
:1007A8000C000900B01F78008700A90007FF0700A8
:1007B8000000E20001003200FEFE0700A001200058
:1007C8000C0009004F1078004F0078003600F9003F
:0807D8003400F90000400600A6
:1003D4000000FA001882BF00610060000080FA008B
:0403E400000006000F
:1003BC000000FA0000000000000000001C82BF00DA
:0803CC000080FA0000000600A9
:100A5C003400F8003600F800801F780020002000D9
:100A6C000C000900B01F780086A0A900A00120008E
:100A7C000C0009004F1078004F0078003600F90088
:080A8C003400F90000400600EF
:1009FC003400F8003600F800801F7800200020003A
:100A0C000C000900B01F78008A1F78000220EF004C
:100A1C008560A900CA42A800DCFE07006100E10065
:100A2C0002003A000185FB00DEFE0700CA42A90065
:100A3C004F057800A00120000C0009004F10780031
:100A4C004F0078003600F9003400F9000040060031
:100598000000FA000020EF000F02AF000020EC007E
:0805A8000080FA0000000600CB
:1005B0000000FA000F02AF0001003700FDFF370016
:0C05C0008A1088000080FA00000006008D
:100648003400F8003600F800801F780020002000F1
:100658000C000900B01F78008520A90060FF070082
:100668000000E2004300320062FF0700004178000A
:10067800A1C2B3000104E10004003A000182200095
:100688000020EF00804878000300370011C0B30055
:100698000082200010C840000082200090407800AE
:1006A800F0C0B300000CE100060031000082200019
:1006B8009080FB0000812000010040000248780083
:1006C8000300370001822000F0C0B30080487800A2
:1006D80030C2B3000014E10025003A00F000200009
:1006E800E1005000008220001080FB000100E100C2
:1006F8001F003A0020822000104078006004E100CA
:100708001B003A00018220000020EF00804878009A
:100718000082200090407800F0C0B300000CE10097
:100728000D003100008220009080FB000080200036
:1007380001014000008220009080FB000081200021
:10074800010040001049780011C0B3000082200069
:1007580010C84000EEFF37001182200010C0B3001F
:1007680080487800018220000020EF00804878004F
:10077800BAFF3700A00120000C0009004F107800D4
:100788004F0078003600F9003400F90000400600F8
:1003E8000000FA000E82BF00610060000080FA0081
:0403F80000000600FB
:1003FC000000FA0000000000000000001282BF00A4
:08040C000080FA000000060068
:10060C003400F8003600F800801F7800200020002D
:10061C000C000900B01F780084C0A9000060FE0027
:10062C00A00120000C0009004F1078004F0078004A
:0C063C003600F9003400F9000040060010
:1005CC003400F8003600F800801F7800200020006E
:1005DC000C000900B01F78008460A900A022A800BC
:1005EC00A1E2A800A00120000C0009004F10780027
:1005FC004F0078003600F9003400F9000040060086
:100A94002A300000303000003030000030300000D8
:100AA40030300000303000003030000023000000FF
:100AB4002A300000303000003030000030300000B8
:100AC40030300000303000003030000023000000DF
:040AD400000000001E
:040AD80001300000E9
:0200000401F009
:1C0000001387000031800000B38700000F3100000F3300000000000003C000001A
:00000001FF
